{
  "contractName": "Voting",
  "abi": [
    {
      "anonymous": false,
      "inputs": [
        {
          "indexed": true,
          "internalType": "address",
          "name": "previousOwner",
          "type": "address"
        },
        {
          "indexed": true,
          "internalType": "address",
          "name": "newOwner",
          "type": "address"
        }
      ],
      "name": "OwnershipTransferred",
      "type": "event"
    },
    {
      "anonymous": false,
      "inputs": [
        {
          "indexed": false,
          "internalType": "uint256",
          "name": "proposalId",
          "type": "uint256"
        }
      ],
      "name": "ProposalRegistered",
      "type": "event"
    },
    {
      "anonymous": false,
      "inputs": [
        {
          "indexed": false,
          "internalType": "address",
          "name": "voter",
          "type": "address"
        },
        {
          "indexed": false,
          "internalType": "uint256",
          "name": "proposalId",
          "type": "uint256"
        }
      ],
      "name": "Voted",
      "type": "event"
    },
    {
      "anonymous": false,
      "inputs": [
        {
          "indexed": false,
          "internalType": "address",
          "name": "voterAddress",
          "type": "address"
        }
      ],
      "name": "VoterRegistered",
      "type": "event"
    },
    {
      "anonymous": false,
      "inputs": [
        {
          "indexed": false,
          "internalType": "enum Voting.WorkflowStatus",
          "name": "previousStatus",
          "type": "uint8"
        },
        {
          "indexed": false,
          "internalType": "enum Voting.WorkflowStatus",
          "name": "newStatus",
          "type": "uint8"
        }
      ],
      "name": "WorkflowStatusChange",
      "type": "event"
    },
    {
      "inputs": [],
      "name": "owner",
      "outputs": [
        {
          "internalType": "address",
          "name": "",
          "type": "address"
        }
      ],
      "stateMutability": "view",
      "type": "function"
    },
    {
      "inputs": [
        {
          "internalType": "uint256",
          "name": "",
          "type": "uint256"
        }
      ],
      "name": "proposalsArray",
      "outputs": [
        {
          "internalType": "string",
          "name": "description",
          "type": "string"
        },
        {
          "internalType": "uint256",
          "name": "voteCount",
          "type": "uint256"
        }
      ],
      "stateMutability": "view",
      "type": "function"
    },
    {
      "inputs": [],
      "name": "renounceOwnership",
      "outputs": [],
      "stateMutability": "nonpayable",
      "type": "function"
    },
    {
      "inputs": [
        {
          "internalType": "address",
          "name": "newOwner",
          "type": "address"
        }
      ],
      "name": "transferOwnership",
      "outputs": [],
      "stateMutability": "nonpayable",
      "type": "function"
    },
    {
      "inputs": [],
      "name": "winningProposalID",
      "outputs": [
        {
          "internalType": "uint256",
          "name": "",
          "type": "uint256"
        }
      ],
      "stateMutability": "view",
      "type": "function"
    },
    {
      "inputs": [],
      "name": "workflowStatus",
      "outputs": [
        {
          "internalType": "enum Voting.WorkflowStatus",
          "name": "",
          "type": "uint8"
        }
      ],
      "stateMutability": "view",
      "type": "function"
    },
    {
      "inputs": [
        {
          "internalType": "address",
          "name": "_addr",
          "type": "address"
        }
      ],
      "name": "getVoter",
      "outputs": [
        {
          "components": [
            {
              "internalType": "bool",
              "name": "isRegistered",
              "type": "bool"
            },
            {
              "internalType": "bool",
              "name": "hasVoted",
              "type": "bool"
            },
            {
              "internalType": "uint256",
              "name": "votedProposalId",
              "type": "uint256"
            }
          ],
          "internalType": "struct Voting.Voter",
          "name": "",
          "type": "tuple"
        }
      ],
      "stateMutability": "view",
      "type": "function"
    },
    {
      "inputs": [
        {
          "internalType": "uint256",
          "name": "_id",
          "type": "uint256"
        }
      ],
      "name": "getOneProposal",
      "outputs": [
        {
          "components": [
            {
              "internalType": "string",
              "name": "description",
              "type": "string"
            },
            {
              "internalType": "uint256",
              "name": "voteCount",
              "type": "uint256"
            }
          ],
          "internalType": "struct Voting.Proposal",
          "name": "",
          "type": "tuple"
        }
      ],
      "stateMutability": "view",
      "type": "function"
    },
    {
      "inputs": [],
      "name": "getWinningProposalID",
      "outputs": [
        {
          "internalType": "uint256",
          "name": "",
          "type": "uint256"
        }
      ],
      "stateMutability": "view",
      "type": "function"
    },
    {
      "inputs": [],
      "name": "getCurrentStatus",
      "outputs": [
        {
          "internalType": "enum Voting.WorkflowStatus",
          "name": "",
          "type": "uint8"
        }
      ],
      "stateMutability": "view",
      "type": "function"
    },
    {
      "inputs": [
        {
          "internalType": "address",
          "name": "_addr",
          "type": "address"
        }
      ],
      "name": "addVoter",
      "outputs": [],
      "stateMutability": "nonpayable",
      "type": "function"
    },
    {
      "inputs": [
        {
          "internalType": "string",
          "name": "_desc",
          "type": "string"
        }
      ],
      "name": "addProposal",
      "outputs": [],
      "stateMutability": "nonpayable",
      "type": "function"
    },
    {
      "inputs": [
        {
          "internalType": "uint256",
          "name": "_id",
          "type": "uint256"
        }
      ],
      "name": "setVote",
      "outputs": [],
      "stateMutability": "nonpayable",
      "type": "function"
    },
    {
      "inputs": [],
      "name": "startProposalsRegistering",
      "outputs": [],
      "stateMutability": "nonpayable",
      "type": "function"
    },
    {
      "inputs": [],
      "name": "endProposalsRegistering",
      "outputs": [],
      "stateMutability": "nonpayable",
      "type": "function"
    },
    {
      "inputs": [],
      "name": "startVotingSession",
      "outputs": [],
      "stateMutability": "nonpayable",
      "type": "function"
    },
    {
      "inputs": [],
      "name": "endVotingSession",
      "outputs": [],
      "stateMutability": "nonpayable",
      "type": "function"
    },
    {
      "inputs": [],
      "name": "tallyVotes",
      "outputs": [],
      "stateMutability": "nonpayable",
      "type": "function"
    }
  ],
  "bytecode": "0x60806040526000600260006101000a81548160ff021916908360058111156200002d576200002c62000132565b5b02179055503480156200003f57600080fd5b5062000060620000546200006660201b60201c565b6200006e60201b60201c565b62000161565b600033905090565b60008060009054906101000a900473ffffffffffffffffffffffffffffffffffffffff169050816000806101000a81548173ffffffffffffffffffffffffffffffffffffffff021916908373ffffffffffffffffffffffffffffffffffffffff1602179055508173ffffffffffffffffffffffffffffffffffffffff168173ffffffffffffffffffffffffffffffffffffffff167f8be0079c531659141344cd1fd0a4f28419497f9722a3daafe3b4186f6b6457e060405160405180910390a35050565b7f4e487b7100000000000000000000000000000000000000000000000000000000600052602160045260246000fd5b6128e180620001716000396000f3fe608060405234801561001057600080fd5b50600436106101165760003560e01c8063bdc01431116100a2578063d88b716e11610071578063d88b716e1461025d578063ee74c6781461027b578063f2fde38b14610285578063f4ab9adf146102a1578063f86c6779146102bd57610116565b8063bdc01431146101fb578063c7038a4e14610219578063c88af42f14610223578063d4f50f981461022d57610116565b80638da5cb5b116100e95780638da5cb5b14610167578063a1edffa214610185578063a2788cce146101a3578063a3dd2619146101d3578063a7bfab16146101f157610116565b8063230796ae1461011b5780632fdae3c514610137578063378a217814610153578063715018a61461015d575b600080fd5b6101356004803603810190610130919061180c565b6102ee565b005b610151600480360381019061014c919061197f565b6105e9565b005b61015b610825565b005b610165610a06565b005b61016f610a8e565b60405161017c9190611a09565b60405180910390f35b61018d610ab7565b60405161019a9190611a9b565b60405180910390f35b6101bd60048036038101906101b8919061180c565b610aca565b6040516101ca9190611b8a565b60405180910390f35b6101db610c31565b6040516101e89190611a9b565b60405180910390f35b6101f9610c48565b005b610203610da2565b6040516102109190611bbb565b60405180910390f35b610221610da8565b005b61022b610f02565b005b61024760048036038101906102429190611c02565b61105b565b6040516102549190611c8c565b60405180910390f35b610265611183565b6040516102729190611bbb565b60405180910390f35b61028361118d565b005b61029f600480360381019061029a9190611c02565b6112e7565b005b6102bb60048036038101906102b69190611c02565b6113de565b005b6102d760048036038101906102d2919061180c565b6115fb565b6040516102e5929190611cf1565b60405180910390f35b600460003373ffffffffffffffffffffffffffffffffffffffff1673ffffffffffffffffffffffffffffffffffffffff16815260200190815260200160002060000160009054906101000a900460ff1661037d576040517f08c379a000000000000000000000000000000000000000000000000000000000815260040161037490611d6d565b60405180910390fd5b6003600581111561039157610390611a24565b5b600260009054906101000a900460ff1660058111156103b3576103b2611a24565b5b146103f3576040517f08c379a00000000000000000000000000000000000000000000000000000000081526004016103ea90611dff565b60405180910390fd5b60011515600460003373ffffffffffffffffffffffffffffffffffffffff1673ffffffffffffffffffffffffffffffffffffffff16815260200190815260200160002060000160019054906101000a900460ff16151503610489576040517f08c379a000000000000000000000000000000000000000000000000000000000815260040161048090611e6b565b60405180910390fd5b60038054905081106104d0576040517f08c379a00000000000000000000000000000000000000000000000000000000081526004016104c790611ed7565b60405180910390fd5b80600460003373ffffffffffffffffffffffffffffffffffffffff1673ffffffffffffffffffffffffffffffffffffffff168152602001908152602001600020600101819055506001600460003373ffffffffffffffffffffffffffffffffffffffff1673ffffffffffffffffffffffffffffffffffffffff16815260200190815260200160002060000160016101000a81548160ff0219169083151502179055506003818154811061058657610585611ef7565b5b906000526020600020906002020160010160008154809291906105a890611f55565b91905055507f4d99b957a2bc29a30ebd96a7be8e68fe50a3c701db28a91436490b7d53870ca433826040516105de929190611f9d565b60405180910390a150565b600460003373ffffffffffffffffffffffffffffffffffffffff1673ffffffffffffffffffffffffffffffffffffffff16815260200190815260200160002060000160009054906101000a900460ff16610678576040517f08c379a000000000000000000000000000000000000000000000000000000000815260040161066f90611d6d565b60405180910390fd5b6001600581111561068c5761068b611a24565b5b600260009054906101000a900460ff1660058111156106ae576106ad611a24565b5b146106ee576040517f08c379a00000000000000000000000000000000000000000000000000000000081526004016106e590612012565b60405180910390fd5b6040516020016106fd90612058565b60405160208183030381529060405280519060200120816040516020016107249190612078565b604051602081830303815290604052805190602001200361077a576040517f08c379a00000000000000000000000000000000000000000000000000000000081526004016107719061210c565b60405180910390fd5b610782611783565b818160000181905250600381908060018154018082558091505060019003906000526020600020906002020160009091909190915060008201518160000190816107cc9190612338565b506020820151816001015550507f92e393e9b54e2f801d3ea4beb0c5e71a21cc34a5d34b77d0fb8a3aa1650dc18f600160038054905061080c919061240a565b6040516108199190611bbb565b60405180910390a15050565b61082d6116b7565b73ffffffffffffffffffffffffffffffffffffffff1661084b610a8e565b73ffffffffffffffffffffffffffffffffffffffff16146108a1576040517f08c379a00000000000000000000000000000000000000000000000000000000081526004016108989061248a565b60405180910390fd5b600460058111156108b5576108b4611a24565b5b600260009054906101000a900460ff1660058111156108d7576108d6611a24565b5b14610917576040517f08c379a000000000000000000000000000000000000000000000000000000000815260040161090e9061251c565b60405180910390fd5b600080600090505b60038054905081101561099557600382815481106109405761093f611ef7565b5b9060005260206000209060020201600101546003828154811061096657610965611ef7565b5b9060005260206000209060020201600101541115610982578091505b808061098d90611f55565b91505061091f565b50806001819055506005600260006101000a81548160ff021916908360058111156109c3576109c2611a24565b5b02179055507f0a97a4ee45751e2abf3e4fc8946939630b11b371ea8ae39ccdc3056e98f5cc3f600460056040516109fb92919061253c565b60405180910390a150565b610a0e6116b7565b73ffffffffffffffffffffffffffffffffffffffff16610a2c610a8e565b73ffffffffffffffffffffffffffffffffffffffff1614610a82576040517f08c379a0000000000000000000000000000000000000000000000000000000008152600401610a799061248a565b60405180910390fd5b610a8c60006116bf565b565b60008060009054906101000a900473ffffffffffffffffffffffffffffffffffffffff16905090565b600260009054906101000a900460ff1681565b610ad2611783565b600460003373ffffffffffffffffffffffffffffffffffffffff1673ffffffffffffffffffffffffffffffffffffffff16815260200190815260200160002060000160009054906101000a900460ff16610b61576040517f08c379a0000000000000000000000000000000000000000000000000000000008152600401610b5890611d6d565b60405180910390fd5b60038281548110610b7557610b74611ef7565b5b9060005260206000209060020201604051806040016040529081600082018054610b9e9061215b565b80601f0160208091040260200160405190810160405280929190818152602001828054610bca9061215b565b8015610c175780601f10610bec57610100808354040283529160200191610c17565b820191906000526020600020905b815481529060010190602001808311610bfa57829003601f168201915b505050505081526020016001820154815250509050919050565b6000600260009054906101000a900460ff16905090565b610c506116b7565b73ffffffffffffffffffffffffffffffffffffffff16610c6e610a8e565b73ffffffffffffffffffffffffffffffffffffffff1614610cc4576040517f08c379a0000000000000000000000000000000000000000000000000000000008152600401610cbb9061248a565b60405180910390fd5b60036005811115610cd857610cd7611a24565b5b600260009054906101000a900460ff166005811115610cfa57610cf9611a24565b5b14610d3a576040517f08c379a0000000000000000000000000000000000000000000000000000000008152600401610d3190611dff565b60405180910390fd5b6004600260006101000a81548160ff02191690836005811115610d6057610d5f611a24565b5b02179055507f0a97a4ee45751e2abf3e4fc8946939630b11b371ea8ae39ccdc3056e98f5cc3f60036004604051610d9892919061253c565b60405180910390a1565b60015481565b610db06116b7565b73ffffffffffffffffffffffffffffffffffffffff16610dce610a8e565b73ffffffffffffffffffffffffffffffffffffffff1614610e24576040517f08c379a0000000000000000000000000000000000000000000000000000000008152600401610e1b9061248a565b60405180910390fd5b60006005811115610e3857610e37611a24565b5b600260009054906101000a900460ff166005811115610e5a57610e59611a24565b5b14610e9a576040517f08c379a0000000000000000000000000000000000000000000000000000000008152600401610e91906125d7565b60405180910390fd5b6001600260006101000a81548160ff02191690836005811115610ec057610ebf611a24565b5b02179055507f0a97a4ee45751e2abf3e4fc8946939630b11b371ea8ae39ccdc3056e98f5cc3f60006001604051610ef892919061253c565b60405180910390a1565b610f0a6116b7565b73ffffffffffffffffffffffffffffffffffffffff16610f28610a8e565b73ffffffffffffffffffffffffffffffffffffffff1614610f7e576040517f08c379a0000000000000000000000000000000000000000000000000000000008152600401610f759061248a565b60405180910390fd5b60016005811115610f9257610f91611a24565b5b600260009054906101000a900460ff166005811115610fb457610fb3611a24565b5b14610ff4576040517f08c379a0000000000000000000000000000000000000000000000000000000008152600401610feb90612669565b60405180910390fd5b60028060006101000a81548160ff0219169083600581111561101957611018611a24565b5b02179055507f0a97a4ee45751e2abf3e4fc8946939630b11b371ea8ae39ccdc3056e98f5cc3f6001600260405161105192919061253c565b60405180910390a1565b61106361179d565b600460003373ffffffffffffffffffffffffffffffffffffffff1673ffffffffffffffffffffffffffffffffffffffff16815260200190815260200160002060000160009054906101000a900460ff166110f2576040517f08c379a00000000000000000000000000000000000000000000000000000000081526004016110e990611d6d565b60405180910390fd5b600460008373ffffffffffffffffffffffffffffffffffffffff1673ffffffffffffffffffffffffffffffffffffffff1681526020019081526020016000206040518060600160405290816000820160009054906101000a900460ff161515151581526020016000820160019054906101000a900460ff161515151581526020016001820154815250509050919050565b6000600154905090565b6111956116b7565b73ffffffffffffffffffffffffffffffffffffffff166111b3610a8e565b73ffffffffffffffffffffffffffffffffffffffff1614611209576040517f08c379a00000000000000000000000000000000000000000000000000000000081526004016112009061248a565b60405180910390fd5b6002600581111561121d5761121c611a24565b5b600260009054906101000a900460ff16600581111561123f5761123e611a24565b5b1461127f576040517f08c379a0000000000000000000000000000000000000000000000000000000008152600401611276906126fb565b60405180910390fd5b6003600260006101000a81548160ff021916908360058111156112a5576112a4611a24565b5b02179055507f0a97a4ee45751e2abf3e4fc8946939630b11b371ea8ae39ccdc3056e98f5cc3f600260036040516112dd92919061253c565b60405180910390a1565b6112ef6116b7565b73ffffffffffffffffffffffffffffffffffffffff1661130d610a8e565b73ffffffffffffffffffffffffffffffffffffffff1614611363576040517f08c379a000000000000000000000000000000000000000000000000000000000815260040161135a9061248a565b60405180910390fd5b600073ffffffffffffffffffffffffffffffffffffffff168173ffffffffffffffffffffffffffffffffffffffff16036113d2576040517f08c379a00000000000000000000000000000000000000000000000000000000081526004016113c99061278d565b60405180910390fd5b6113db816116bf565b50565b6113e66116b7565b73ffffffffffffffffffffffffffffffffffffffff16611404610a8e565b73ffffffffffffffffffffffffffffffffffffffff161461145a576040517f08c379a00000000000000000000000000000000000000000000000000000000081526004016114519061248a565b60405180910390fd5b60011515600460008373ffffffffffffffffffffffffffffffffffffffff1673ffffffffffffffffffffffffffffffffffffffff16815260200190815260200160002060000160009054906101000a900460ff161515036114f0576040517f08c379a00000000000000000000000000000000000000000000000000000000081526004016114e7906127f9565b60405180910390fd5b6000600581111561150457611503611a24565b5b600260009054906101000a900460ff16600581111561152657611525611a24565b5b14611566576040517f08c379a000000000000000000000000000000000000000000000000000000000815260040161155d9061288b565b60405180910390fd5b6001600460008373ffffffffffffffffffffffffffffffffffffffff1673ffffffffffffffffffffffffffffffffffffffff16815260200190815260200160002060000160006101000a81548160ff0219169083151502179055507fb6be2187d059cc2a55fe29e0e503b566e1e0f8c8780096e185429350acffd3dd816040516115f09190611a09565b60405180910390a150565b6003818154811061160b57600080fd5b906000526020600020906002020160009150905080600001805461162e9061215b565b80601f016020809104026020016040519081016040528092919081815260200182805461165a9061215b565b80156116a75780601f1061167c576101008083540402835291602001916116a7565b820191906000526020600020905b81548152906001019060200180831161168a57829003601f168201915b5050505050908060010154905082565b600033905090565b60008060009054906101000a900473ffffffffffffffffffffffffffffffffffffffff169050816000806101000a81548173ffffffffffffffffffffffffffffffffffffffff021916908373ffffffffffffffffffffffffffffffffffffffff1602179055508173ffffffffffffffffffffffffffffffffffffffff168173ffffffffffffffffffffffffffffffffffffffff167f8be0079c531659141344cd1fd0a4f28419497f9722a3daafe3b4186f6b6457e060405160405180910390a35050565b604051806040016040528060608152602001600081525090565b6040518060600160405280600015158152602001600015158152602001600081525090565b6000604051905090565b600080fd5b600080fd5b6000819050919050565b6117e9816117d6565b81146117f457600080fd5b50565b600081359050611806816117e0565b92915050565b600060208284031215611822576118216117cc565b5b6000611830848285016117f7565b91505092915050565b600080fd5b600080fd5b6000601f19601f8301169050919050565b7f4e487b7100000000000000000000000000000000000000000000000000000000600052604160045260246000fd5b61188c82611843565b810181811067ffffffffffffffff821117156118ab576118aa611854565b5b80604052505050565b60006118be6117c2565b90506118ca8282611883565b919050565b600067ffffffffffffffff8211156118ea576118e9611854565b5b6118f382611843565b9050602081019050919050565b82818337600083830152505050565b600061192261191d846118cf565b6118b4565b90508281526020810184848401111561193e5761193d61183e565b5b611949848285611900565b509392505050565b600082601f83011261196657611965611839565b5b813561197684826020860161190f565b91505092915050565b600060208284031215611995576119946117cc565b5b600082013567ffffffffffffffff8111156119b3576119b26117d1565b5b6119bf84828501611951565b91505092915050565b600073ffffffffffffffffffffffffffffffffffffffff82169050919050565b60006119f3826119c8565b9050919050565b611a03816119e8565b82525050565b6000602082019050611a1e60008301846119fa565b92915050565b7f4e487b7100000000000000000000000000000000000000000000000000000000600052602160045260246000fd5b60068110611a6457611a63611a24565b5b50565b6000819050611a7582611a53565b919050565b6000611a8582611a67565b9050919050565b611a9581611a7a565b82525050565b6000602082019050611ab06000830184611a8c565b92915050565b600081519050919050565b600082825260208201905092915050565b60005b83811015611af0578082015181840152602081019050611ad5565b83811115611aff576000848401525b50505050565b6000611b1082611ab6565b611b1a8185611ac1565b9350611b2a818560208601611ad2565b611b3381611843565b840191505092915050565b611b47816117d6565b82525050565b60006040830160008301518482036000860152611b6a8282611b05565b9150506020830151611b7f6020860182611b3e565b508091505092915050565b60006020820190508181036000830152611ba48184611b4d565b905092915050565b611bb5816117d6565b82525050565b6000602082019050611bd06000830184611bac565b92915050565b611bdf816119e8565b8114611bea57600080fd5b50565b600081359050611bfc81611bd6565b92915050565b600060208284031215611c1857611c176117cc565b5b6000611c2684828501611bed565b91505092915050565b60008115159050919050565b611c4481611c2f565b82525050565b606082016000820151611c606000850182611c3b565b506020820151611c736020850182611c3b565b506040820151611c866040850182611b3e565b50505050565b6000606082019050611ca16000830184611c4a565b92915050565b600082825260208201905092915050565b6000611cc382611ab6565b611ccd8185611ca7565b9350611cdd818560208601611ad2565b611ce681611843565b840191505092915050565b60006040820190508181036000830152611d0b8185611cb8565b9050611d1a6020830184611bac565b9392505050565b7f596f75277265206e6f74206120766f7465720000000000000000000000000000600082015250565b6000611d57601283611ca7565b9150611d6282611d21565b602082019050919050565b60006020820190508181036000830152611d8681611d4a565b9050919050565b7f566f74696e672073657373696f6e20686176656e74207374617274656420796560008201527f7400000000000000000000000000000000000000000000000000000000000000602082015250565b6000611de9602183611ca7565b9150611df482611d8d565b604082019050919050565b60006020820190508181036000830152611e1881611ddc565b9050919050565b7f596f75206861766520616c726561647920766f74656400000000000000000000600082015250565b6000611e55601683611ca7565b9150611e6082611e1f565b602082019050919050565b60006020820190508181036000830152611e8481611e48565b9050919050565b7f50726f706f73616c206e6f7420666f756e640000000000000000000000000000600082015250565b6000611ec1601283611ca7565b9150611ecc82611e8b565b602082019050919050565b60006020820190508181036000830152611ef081611eb4565b9050919050565b7f4e487b7100000000000000000000000000000000000000000000000000000000600052603260045260246000fd5b7f4e487b7100000000000000000000000000000000000000000000000000000000600052601160045260246000fd5b6000611f60826117d6565b91507fffffffffffffffffffffffffffffffffffffffffffffffffffffffffffffffff8203611f9257611f91611f26565b5b600182019050919050565b6000604082019050611fb260008301856119fa565b611fbf6020830184611bac565b9392505050565b7f50726f706f73616c7320617265206e6f7420616c6c6f77656420796574000000600082015250565b6000611ffc601d83611ca7565b915061200782611fc6565b602082019050919050565b6000602082019050818103600083015261202b81611fef565b9050919050565b50565b6000612042600083611ca7565b915061204d82612032565b600082019050919050565b6000602082019050818103600083015261207181612035565b9050919050565b600060208201905081810360008301526120928184611cb8565b905092915050565b7f566f7573206e6520706f7576657a20706173206e65207269656e2070726f706f60008201527f7365720000000000000000000000000000000000000000000000000000000000602082015250565b60006120f6602383611ca7565b91506121018261209a565b604082019050919050565b60006020820190508181036000830152612125816120e9565b9050919050565b7f4e487b7100000000000000000000000000000000000000000000000000000000600052602260045260246000fd5b6000600282049050600182168061217357607f821691505b6020821081036121865761218561212c565b5b50919050565b60008190508160005260206000209050919050565b60006020601f8301049050919050565b600082821b905092915050565b6000600883026121ee7fffffffffffffffffffffffffffffffffffffffffffffffffffffffffffffffff826121b1565b6121f886836121b1565b95508019841693508086168417925050509392505050565b6000819050919050565b600061223561223061222b846117d6565b612210565b6117d6565b9050919050565b6000819050919050565b61224f8361221a565b61226361225b8261223c565b8484546121be565b825550505050565b600090565b61227861226b565b612283818484612246565b505050565b5b818110156122a75761229c600082612270565b600181019050612289565b5050565b601f8211156122ec576122bd8161218c565b6122c6846121a1565b810160208510156122d5578190505b6122e96122e1856121a1565b830182612288565b50505b505050565b600082821c905092915050565b600061230f600019846008026122f1565b1980831691505092915050565b600061232883836122fe565b9150826002028217905092915050565b61234182611ab6565b67ffffffffffffffff81111561235a57612359611854565b5b612364825461215b565b61236f8282856122ab565b600060209050601f8311600181146123a25760008415612390578287015190505b61239a858261231c565b865550612402565b601f1984166123b08661218c565b60005b828110156123d8578489015182556001820191506020850194506020810190506123b3565b868310156123f557848901516123f1601f8916826122fe565b8355505b6001600288020188555050505b505050505050565b6000612415826117d6565b9150612420836117d6565b92508282101561243357612432611f26565b5b828203905092915050565b7f4f776e61626c653a2063616c6c6572206973206e6f7420746865206f776e6572600082015250565b6000612474602083611ca7565b915061247f8261243e565b602082019050919050565b600060208201905081810360008301526124a381612467565b9050919050565b7f43757272656e7420737461747573206973206e6f7420766f74696e672073657360008201527f73696f6e20656e64656400000000000000000000000000000000000000000000602082015250565b6000612506602a83611ca7565b9150612511826124aa565b604082019050919050565b60006020820190508181036000830152612535816124f9565b9050919050565b60006040820190506125516000830185611a8c565b61255e6020830184611a8c565b9392505050565b7f5265676973746572696e672070726f706f73616c732063616e7420626520737460008201527f6172746564206e6f770000000000000000000000000000000000000000000000602082015250565b60006125c1602983611ca7565b91506125cc82612565565b604082019050919050565b600060208201905081810360008301526125f0816125b4565b9050919050565b7f5265676973746572696e672070726f706f73616c7320686176656e742073746160008201527f7274656420796574000000000000000000000000000000000000000000000000602082015250565b6000612653602883611ca7565b915061265e826125f7565b604082019050919050565b6000602082019050818103600083015261268281612646565b9050919050565b7f5265676973746572696e672070726f706f73616c73207068617365206973206e60008201527f6f742066696e6973686564000000000000000000000000000000000000000000602082015250565b60006126e5602b83611ca7565b91506126f082612689565b604082019050919050565b60006020820190508181036000830152612714816126d8565b9050919050565b7f4f776e61626c653a206e6577206f776e657220697320746865207a65726f206160008201527f6464726573730000000000000000000000000000000000000000000000000000602082015250565b6000612777602683611ca7565b91506127828261271b565b604082019050919050565b600060208201905081810360008301526127a68161276a565b9050919050565b7f416c726561647920726567697374657265640000000000000000000000000000600082015250565b60006127e3601283611ca7565b91506127ee826127ad565b602082019050919050565b60006020820190508181036000830152612812816127d6565b9050919050565b7f566f7465727320726567697374726174696f6e206973206e6f74206f70656e2060008201527f7965740000000000000000000000000000000000000000000000000000000000602082015250565b6000612875602383611ca7565b915061288082612819565b604082019050919050565b600060208201905081810360008301526128a481612868565b905091905056fea2646970667358221220a2c45dcafc4b26f16feb4ab5743074cc88ed3688248519912346c961d40a5ca564736f6c634300080f0033",
  "immutableReferences": {},
  "source": "// SPDX-License-Identifier: MIT\n\npragma solidity 0.8.15;\nimport \"../node_modules/@openzeppelin/contracts/access/Ownable.sol\";\n\n\n\ncontract Voting is Ownable {\n\n    uint public winningProposalID;\n    \n    struct Voter {\n        bool isRegistered;\n        bool hasVoted;\n        uint votedProposalId;\n    }\n\n    struct Proposal {\n        string description;\n        uint voteCount;\n    }\n\n    enum  WorkflowStatus {\n        RegisteringVoters,\n        ProposalsRegistrationStarted,\n        ProposalsRegistrationEnded,\n        VotingSessionStarted,\n        VotingSessionEnded,\n        VotesTallied\n    }\n\n    WorkflowStatus public workflowStatus = WorkflowStatus.RegisteringVoters;\n    Proposal[]  public proposalsArray;\n    mapping (address => Voter) voters;\n\n\n    event VoterRegistered(address voterAddress); \n    event WorkflowStatusChange(WorkflowStatus previousStatus, WorkflowStatus newStatus);\n    event ProposalRegistered(uint proposalId);\n    event Voted (address voter, uint proposalId);\n\n    modifier onlyVoters() {\n        require(voters[msg.sender].isRegistered, \"You're not a voter\");\n        _;\n    }\n    \n    // on peut faire un modifier pour les tats\n\n    // ::::::::::::: GETTERS ::::::::::::: //\n\n    function getVoter(address _addr) external onlyVoters view returns (Voter memory) {\n        return voters[_addr];\n    }\n    \n    function getOneProposal(uint _id) external onlyVoters view returns (Proposal memory) {\n        return proposalsArray[_id];\n    }\n    function getWinningProposalID() external view returns ( uint){\n        return winningProposalID;\n    }\n\n    function getCurrentStatus() external view returns(WorkflowStatus) {\n        return workflowStatus;\n    }\n\n \n    // ::::::::::::: REGISTRATION ::::::::::::: // \n\n    function addVoter(address _addr) external onlyOwner {\n        require(voters[_addr].isRegistered != true, 'Already registered');\n        require(workflowStatus == WorkflowStatus.RegisteringVoters, 'Voters registration is not open yet');        \n    \n        voters[_addr].isRegistered = true;\n        emit VoterRegistered(_addr);\n    }\n \n\n    // ::::::::::::: PROPOSAL ::::::::::::: // \n\n    function addProposal(string memory _desc) external onlyVoters {\n        require(workflowStatus == WorkflowStatus.ProposalsRegistrationStarted, 'Proposals are not allowed yet');\n        require(keccak256(abi.encode(_desc)) != keccak256(abi.encode(\"\")), 'Vous ne pouvez pas ne rien proposer'); // facultatif\n        // voir que desc est different des autres\n\n        Proposal memory proposal;\n        proposal.description = _desc;\n        proposalsArray.push(proposal);\n        emit ProposalRegistered(proposalsArray.length-1);\n    }\n\n    // ::::::::::::: VOTE ::::::::::::: //\n\n    function setVote( uint _id) external onlyVoters {\n        require(workflowStatus == WorkflowStatus.VotingSessionStarted, 'Voting session havent started yet');\n        require(voters[msg.sender].hasVoted != true, 'You have already voted');\n        require(_id < proposalsArray.length, 'Proposal not found'); // pas oblig, et pas besoin du >0 car uint\n\n        voters[msg.sender].votedProposalId = _id;\n        voters[msg.sender].hasVoted = true;\n        proposalsArray[_id].voteCount++;\n\n        emit Voted(msg.sender, _id);\n    }\n\n    // ::::::::::::: STATE ::::::::::::: //\n\n\n    function startProposalsRegistering() external onlyOwner {\n        require(workflowStatus == WorkflowStatus.RegisteringVoters, 'Registering proposals cant be started now');\n        workflowStatus = WorkflowStatus.ProposalsRegistrationStarted;\n        emit WorkflowStatusChange(WorkflowStatus.RegisteringVoters, WorkflowStatus.ProposalsRegistrationStarted);\n    }\n\n    function endProposalsRegistering() external onlyOwner {\n        require(workflowStatus == WorkflowStatus.ProposalsRegistrationStarted, 'Registering proposals havent started yet');\n        workflowStatus = WorkflowStatus.ProposalsRegistrationEnded;\n        emit WorkflowStatusChange(WorkflowStatus.ProposalsRegistrationStarted, WorkflowStatus.ProposalsRegistrationEnded);\n    }\n\n    function startVotingSession() external onlyOwner {\n        require(workflowStatus == WorkflowStatus.ProposalsRegistrationEnded, 'Registering proposals phase is not finished');\n        workflowStatus = WorkflowStatus.VotingSessionStarted;\n        emit WorkflowStatusChange(WorkflowStatus.ProposalsRegistrationEnded, WorkflowStatus.VotingSessionStarted);\n    }\n\n    function endVotingSession() external onlyOwner {\n        require(workflowStatus == WorkflowStatus.VotingSessionStarted, 'Voting session havent started yet');\n        workflowStatus = WorkflowStatus.VotingSessionEnded;\n        emit WorkflowStatusChange(WorkflowStatus.VotingSessionStarted, WorkflowStatus.VotingSessionEnded);\n    }\n\n\n   function tallyVotes() external onlyOwner {\n       require(workflowStatus == WorkflowStatus.VotingSessionEnded, \"Current status is not voting session ended\");\n       uint _winningProposalId;\n      for (uint256 p = 0; p < proposalsArray.length; p++) {\n           if (proposalsArray[p].voteCount > proposalsArray[_winningProposalId].voteCount) {\n               _winningProposalId = p;\n          }\n       }\n       winningProposalID = _winningProposalId;\n       \n       workflowStatus = WorkflowStatus.VotesTallied;\n       emit WorkflowStatusChange(WorkflowStatus.VotingSessionEnded, WorkflowStatus.VotesTallied);\n    }\n}",
  "sourcePath": "/Users/maudenahutchinson/Desktop/testDevoirMaud/contracts/Voting.sol",
  "compiler": {
    "name": "solc",
    "version": "0.8.15+commit.e14f2714.Emscripten.clang"
  },
  "schemaVersion": "3.4.7",
  "updatedAt": "2022-06-27T21:06:47.879Z",
  "devdoc": {
    "kind": "dev",
    "methods": {
      "owner()": {
        "details": "Returns the address of the current owner."
      },
      "renounceOwnership()": {
        "details": "Leaves the contract without owner. It will not be possible to call `onlyOwner` functions anymore. Can only be called by the current owner. NOTE: Renouncing ownership will leave the contract without an owner, thereby removing any functionality that is only available to the owner."
      },
      "transferOwnership(address)": {
        "details": "Transfers ownership of the contract to a new account (`newOwner`). Can only be called by the current owner."
      }
    },
    "version": 1
  },
  "userdoc": {
    "kind": "user",
    "methods": {},
    "version": 1
  }
}